{
  "transactions": [
    {
      "hash": "0xfafb9a14a4b4de4f918747ab3564cb7eda463df390fd78b6c3674c6ac986fc98",
      "transactionType": "CALL",
      "contractName": null,
      "contractAddress": "0xf0420a5c7b54849790dc83fa34c52af22d704910",
      "function": "stake(uint8)",
      "arguments": [
        "0"
      ],
      "transaction": {
        "from": "0x30194f670e4018c9321672d7323dec07c80c487e",
        "to": "0xf0420a5c7b54849790dc83fa34c52af22d704910",
        "gas": "0x1d86d",
        "value": "0x16345785d8a0000",
        "input": "0x604f21770000000000000000000000000000000000000000000000000000000000000000",
        "nonce": "0x3",
        "chainId": "0x15b32"
      },
      "additionalContracts": [],
      "isFixedGasLimit": false
    },
    {
      "hash": "0xc6a19f6995de42541c6378124fb9f936412b578034b43916dae7fe627b3a8607",
      "transactionType": "CALL",
      "contractName": null,
      "contractAddress": "0xf0420a5c7b54849790dc83fa34c52af22d704910",
      "function": "stake(uint8)",
      "arguments": [
        "1"
      ],
      "transaction": {
        "from": "0x4f115a2ab7c9e34d3037964e110f41ffd300681a",
        "to": "0xf0420a5c7b54849790dc83fa34c52af22d704910",
        "gas": "0x1d87e",
        "value": "0xb1a2bc2ec50000",
        "input": "0x604f21770000000000000000000000000000000000000000000000000000000000000001",
        "nonce": "0x2",
        "chainId": "0x15b32"
      },
      "additionalContracts": [],
      "isFixedGasLimit": false
    },
    {
      "hash": "0x0abe16d130d27a82278cd657fe2cca620e5152b6916ae05526d87d4926712f5c",
      "transactionType": "CALL",
      "contractName": null,
      "contractAddress": "0xf0420a5c7b54849790dc83fa34c52af22d704910",
      "function": "stake(uint8)",
      "arguments": [
        "0"
      ],
      "transaction": {
        "from": "0x7a93f03d9c0df96fcb0dee552ec1a618c270e4a1",
        "to": "0xf0420a5c7b54849790dc83fa34c52af22d704910",
        "gas": "0x17c29",
        "value": "0x6a94d74f430000",
        "input": "0x604f21770000000000000000000000000000000000000000000000000000000000000000",
        "nonce": "0x1",
        "chainId": "0x15b32"
      },
      "additionalContracts": [],
      "isFixedGasLimit": false
    },
    {
      "hash": "0xa4bc9ee4da2ac7f0b51cdb9832f83e3200dbfc9945edd16c5900319edbd251fe",
      "transactionType": "CALL",
      "contractName": null,
      "contractAddress": "0x5d4771af9d5a078000b8e67720da94d7391a5133",
      "function": "stake(uint8)",
      "arguments": [
        "0"
      ],
      "transaction": {
        "from": "0x30194f670e4018c9321672d7323dec07c80c487e",
        "to": "0x5d4771af9d5a078000b8e67720da94d7391a5133",
        "gas": "0x1d86d",
        "value": "0x214e8348c4f0000",
        "input": "0x604f21770000000000000000000000000000000000000000000000000000000000000000",
        "nonce": "0x4",
        "chainId": "0x15b32"
      },
      "additionalContracts": [],
      "isFixedGasLimit": false
    },
    {
      "hash": "0xec67377a82b6b11e0a249dc0975ff392bf306cc174319f8b6482b746b7a97521",
      "transactionType": "CALL",
      "contractName": null,
      "contractAddress": "0x5d4771af9d5a078000b8e67720da94d7391a5133",
      "function": "stake(uint8)",
      "arguments": [
        "1"
      ],
      "transaction": {
        "from": "0x4f115a2ab7c9e34d3037964e110f41ffd300681a",
        "to": "0x5d4771af9d5a078000b8e67720da94d7391a5133",
        "gas": "0x1d87e",
        "value": "0x16345785d8a0000",
        "input": "0x604f21770000000000000000000000000000000000000000000000000000000000000001",
        "nonce": "0x3",
        "chainId": "0x15b32"
      },
      "additionalContracts": [],
      "isFixedGasLimit": false
    },
    {
      "hash": "0xcf74d8ce521e6359ea6866d91ec3b33bb9b01e8aebfb50901b34330c62a6eada",
      "transactionType": "CALL",
      "contractName": null,
      "contractAddress": "0x5d4771af9d5a078000b8e67720da94d7391a5133",
      "function": "stake(uint8)",
      "arguments": [
        "0"
      ],
      "transaction": {
        "from": "0xbcf684167c845b5b9184618e08ecd5d56d34fded",
        "to": "0x5d4771af9d5a078000b8e67720da94d7391a5133",
        "gas": "0x17c29",
        "value": "0x11c37937e080000",
        "input": "0x604f21770000000000000000000000000000000000000000000000000000000000000000",
        "nonce": "0x1",
        "chainId": "0x15b32"
      },
      "additionalContracts": [],
      "isFixedGasLimit": false
    },
    {
      "hash": "0x861d67af72ee97eee4a149fd3e6e080979a4cba6570b46998a33f5ecb50dfe30",
      "transactionType": "CALL",
      "contractName": null,
      "contractAddress": "0xdca98ad5eb1a0975c57f0eff9d1b8f5960af5d41",
      "function": "stake(uint8)",
      "arguments": [
        "1"
      ],
      "transaction": {
        "from": "0xbfc0bb04417a0c78d8acd125d896409a53e0fc64",
        "to": "0xdca98ad5eb1a0975c57f0eff9d1b8f5960af5d41",
        "gas": "0x1d87e",
        "value": "0xb1a2bc2ec50000",
        "input": "0x604f21770000000000000000000000000000000000000000000000000000000000000001",
        "nonce": "0x1",
        "chainId": "0x15b32"
      },
      "additionalContracts": [],
      "isFixedGasLimit": false
    }
  ],
  "receipts": [
    {
      "status": "0x1",
      "cumulativeGasUsed": "0x15608",
      "logs": [
        {
          "address": "0xf0420a5c7b54849790dc83fa34c52af22d704910",
          "topics": [
            "0x3cf14181ae25669a913d72411736fc5c01f538fa503e963b0b2e56bcefb3edaf",
            "0x00000000000000000000000030194f670e4018c9321672d7323dec07c80c487e"
          ],
          "data": "0x0000000000000000000000000000000000000000000000000000000000000000000000000000000000000000000000000000000000000000016345785d8a0000",
          "blockHash": "0x9003056e569349dc38f1e1cc1ab60aa783b735b707afc5ac955ba7637bd41b2f",
          "blockNumber": "0x1cb18c2",
          "transactionHash": "0xfafb9a14a4b4de4f918747ab3564cb7eda463df390fd78b6c3674c6ac986fc98",
          "transactionIndex": "0x0",
          "logIndex": "0x0",
          "removed": false
        }
      ],
      "logsBloom": "0x00000000000000000000000000000000000000000000000000000000000000000000000000004000000000000000000000000000000000000000000000000000000000000000000000000000000008000000000000000000000000000000000000004000000080000000000000000000000000000000000000000000000000000000000000000000000000000000000000000000000000000000000000020000000800000000000000000000000000000000200000000000000000000000008000000000000000000000000000000000000000000001000000000000000000000000000000000000000000000000000000000000000000000000000000000000",
      "type": "0x0",
      "transactionHash": "0xfafb9a14a4b4de4f918747ab3564cb7eda463df390fd78b6c3674c6ac986fc98",
      "transactionIndex": "0x0",
      "blockHash": "0x9003056e569349dc38f1e1cc1ab60aa783b735b707afc5ac955ba7637bd41b2f",
      "blockNumber": "0x1cb18c2",
      "gasUsed": "0x15608",
      "effectiveGasPrice": "0x2464f377200",
      "from": "0x30194f670e4018c9321672d7323dec07c80c487e",
      "to": "0xf0420a5c7b54849790dc83fa34c52af22d704910",
      "contractAddress": null
    },
    {
      "status": "0x1",
      "cumulativeGasUsed": "0x15614",
      "logs": [
        {
          "address": "0xf0420a5c7b54849790dc83fa34c52af22d704910",
          "topics": [
            "0x3cf14181ae25669a913d72411736fc5c01f538fa503e963b0b2e56bcefb3edaf",
            "0x0000000000000000000000004f115a2ab7c9e34d3037964e110f41ffd300681a"
          ],
          "data": "0x000000000000000000000000000000000000000000000000000000000000000100000000000000000000000000000000000000000000000000b1a2bc2ec50000",
          "blockHash": "0xe80c6b549ded8b5fb97322d14bc6c99dd5c399ee112723968db13c3d2470c7ee",
          "blockNumber": "0x1cb18c3",
          "transactionHash": "0xc6a19f6995de42541c6378124fb9f936412b578034b43916dae7fe627b3a8607",
          "transactionIndex": "0x0",
          "logIndex": "0x0",
          "removed": false
        }
      ],
      "logsBloom": "0x00000000000000000000000000000000000000000000000000000000000001000000000000000000000000000000000000000000000000000000000000000000000000000000000000000000000000000000000000000000000000000000000000004000000080000000000000000000000000000000000000000000000000000000000000000000000000000000000000000000000000000000000000020000000000000000000000000000000000000000200000000000000000000000008000000000000000000000000000000000000000000001000001000000000000000000000000000000000000000000000000000000000000000000040000000000",
      "type": "0x0",
      "transactionHash": "0xc6a19f6995de42541c6378124fb9f936412b578034b43916dae7fe627b3a8607",
      "transactionIndex": "0x0",
      "blockHash": "0xe80c6b549ded8b5fb97322d14bc6c99dd5c399ee112723968db13c3d2470c7ee",
      "blockNumber": "0x1cb18c3",
      "gasUsed": "0x15614",
      "effectiveGasPrice": "0x2464f377200",
      "from": "0x4f115a2ab7c9e34d3037964e110f41ffd300681a",
      "to": "0xf0420a5c7b54849790dc83fa34c52af22d704910",
      "contractAddress": null
    },
    {
      "status": "0x1",
      "cumulativeGasUsed": "0x1133c",
      "logs": [
        {
          "address": "0xf0420a5c7b54849790dc83fa34c52af22d704910",
          "topics": [
            "0x3cf14181ae25669a913d72411736fc5c01f538fa503e963b0b2e56bcefb3edaf",
            "0x0000000000000000000000007a93f03d9c0df96fcb0dee552ec1a618c270e4a1"
          ],
          "data": "0x0000000000000000000000000000000000000000000000000000000000000000000000000000000000000000000000000000000000000000006a94d74f430000",
          "blockHash": "0xcb3b79539d3a816a7800c2297cfa96d7b46f1f265e6e6ddbb5c0b1bb0bd8e0ed",
          "blockNumber": "0x1cb18c4",
          "transactionHash": "0x0abe16d130d27a82278cd657fe2cca620e5152b6916ae05526d87d4926712f5c",
          "transactionIndex": "0x0",
          "logIndex": "0x0",
          "removed": false
        }
      ],
      "logsBloom": "0x00000000000000020000000000000000000000000020000000000000000000000000000000000000000000000000000000000000000000000000000000000000000000000000000000000000000000000000000000000000000000000000000000004000000080000000000000000000000000000000000000000000000000000000000000000000000000000000000000000000000000000000000000020000000000000000000000000000000000000000200000000000000000020000008000000000000000000000000000000000000000000001000000000000000000000000000000000000000000000000000000000000000000000000000000000000",
      "type": "0x0",
      "transactionHash": "0x0abe16d130d27a82278cd657fe2cca620e5152b6916ae05526d87d4926712f5c",
      "transactionIndex": "0x0",
      "blockHash": "0xcb3b79539d3a816a7800c2297cfa96d7b46f1f265e6e6ddbb5c0b1bb0bd8e0ed",
      "blockNumber": "0x1cb18c4",
      "gasUsed": "0x1133c",
      "effectiveGasPrice": "0x2464f377200",
      "from": "0x7a93f03d9c0df96fcb0dee552ec1a618c270e4a1",
      "to": "0xf0420a5c7b54849790dc83fa34c52af22d704910",
      "contractAddress": null
    },
    {
      "status": "0x1",
      "cumulativeGasUsed": "0x15608",
      "logs": [
        {
          "address": "0x5d4771af9d5a078000b8e67720da94d7391a5133",
          "topics": [
            "0x3cf14181ae25669a913d72411736fc5c01f538fa503e963b0b2e56bcefb3edaf",
            "0x00000000000000000000000030194f670e4018c9321672d7323dec07c80c487e"
          ],
          "data": "0x00000000000000000000000000000000000000000000000000000000000000000000000000000000000000000000000000000000000000000214e8348c4f0000",
          "blockHash": "0x26238f806461a4e8245b998ec4008343a18992b3aeae9efcfe40130082a1bdb8",
          "blockNumber": "0x1cb18c6",
          "transactionHash": "0xa4bc9ee4da2ac7f0b51cdb9832f83e3200dbfc9945edd16c5900319edbd251fe",
          "transactionIndex": "0x0",
          "logIndex": "0x0",
          "removed": false
        }
      ],
      "logsBloom": "0x00000000000000000000000000000000000000000000000000000000000000000000000000004000000000000000000000000000000000000000000000000000000000000000000000000000000008000000000000000000000000000000000000000000000000000000000000000000000000000000000000000000000000000000000000000000000000000000000000000000000000100000000000020000000800000000002000000000000000000000200000000000000000000000008000000000000000000000000000000000000000000000000000000000000000000000000000000040000000000000000000000000000000000000000000000000",
      "type": "0x0",
      "transactionHash": "0xa4bc9ee4da2ac7f0b51cdb9832f83e3200dbfc9945edd16c5900319edbd251fe",
      "transactionIndex": "0x0",
      "blockHash": "0x26238f806461a4e8245b998ec4008343a18992b3aeae9efcfe40130082a1bdb8",
      "blockNumber": "0x1cb18c6",
      "gasUsed": "0x15608",
      "effectiveGasPrice": "0x2464f377200",
      "from": "0x30194f670e4018c9321672d7323dec07c80c487e",
      "to": "0x5d4771af9d5a078000b8e67720da94d7391a5133",
      "contractAddress": null
    },
    {
      "status": "0x1",
      "cumulativeGasUsed": "0x15614",
      "logs": [
        {
          "address": "0x5d4771af9d5a078000b8e67720da94d7391a5133",
          "topics": [
            "0x3cf14181ae25669a913d72411736fc5c01f538fa503e963b0b2e56bcefb3edaf",
            "0x0000000000000000000000004f115a2ab7c9e34d3037964e110f41ffd300681a"
          ],
          "data": "0x0000000000000000000000000000000000000000000000000000000000000001000000000000000000000000000000000000000000000000016345785d8a0000",
          "blockHash": "0x1b8ec93a2c9716058f9b6864365134d5e233c0a5cb4ebb67a1da37f5b0946849",
          "blockNumber": "0x1cb18c7",
          "transactionHash": "0xec67377a82b6b11e0a249dc0975ff392bf306cc174319f8b6482b746b7a97521",
          "transactionIndex": "0x0",
          "logIndex": "0x0",
          "removed": false
        }
      ],
      "logsBloom": "0x00000000000000000000000000000000000000000000000000000000000001000000000000000000000000000000000000000000000000000000000000000000000000000000000000000000000000000000000000000000000000000000000000000000000000000000000000000000000000000000000000000000000000000000000000000000000000000000000000000000000000100000000000020000000000000000002000000000000000000000200000000000000000000000008000000000000000000000000000000000000000000000000001000000000000000000000000000040000000000000000000000000000000000000040000000000",
      "type": "0x0",
      "transactionHash": "0xec67377a82b6b11e0a249dc0975ff392bf306cc174319f8b6482b746b7a97521",
      "transactionIndex": "0x0",
      "blockHash": "0x1b8ec93a2c9716058f9b6864365134d5e233c0a5cb4ebb67a1da37f5b0946849",
      "blockNumber": "0x1cb18c7",
      "gasUsed": "0x15614",
      "effectiveGasPrice": "0x2464f377200",
      "from": "0x4f115a2ab7c9e34d3037964e110f41ffd300681a",
      "to": "0x5d4771af9d5a078000b8e67720da94d7391a5133",
      "contractAddress": null
    },
    {
      "status": "0x1",
      "cumulativeGasUsed": "0x1133c",
      "logs": [
        {
          "address": "0x5d4771af9d5a078000b8e67720da94d7391a5133",
          "topics": [
            "0x3cf14181ae25669a913d72411736fc5c01f538fa503e963b0b2e56bcefb3edaf",
            "0x000000000000000000000000bcf684167c845b5b9184618e08ecd5d56d34fded"
          ],
          "data": "0x0000000000000000000000000000000000000000000000000000000000000000000000000000000000000000000000000000000000000000011c37937e080000",
          "blockHash": "0x02954ef80df76da515f733115f52b32b74dd536b7cb34987f54de0eb4140276a",
          "blockNumber": "0x1cb18c8",
          "transactionHash": "0xcf74d8ce521e6359ea6866d91ec3b33bb9b01e8aebfb50901b34330c62a6eada",
          "transactionIndex": "0x0",
          "logIndex": "0x0",
          "removed": false
        }
      ],
      "logsBloom": "0x00000000000000000000000000000000000040000000000000000000000000000000000000000000000000000000000000000000000000000000000000000000000000000000000000000000000000000000000000000000000000000000000000000000000000000000000000000000000000000000000000000000000000000000000000000000020000000000000000000000000000100000000000020000000000000000002000000000000000000000200000000000000000000000008000000000000000000000000000000000000000000000000000000000000000000000000000000040000200000000000000000000000000000000000000000000",
      "type": "0x0",
      "transactionHash": "0xcf74d8ce521e6359ea6866d91ec3b33bb9b01e8aebfb50901b34330c62a6eada",
      "transactionIndex": "0x0",
      "blockHash": "0x02954ef80df76da515f733115f52b32b74dd536b7cb34987f54de0eb4140276a",
      "blockNumber": "0x1cb18c8",
      "gasUsed": "0x1133c",
      "effectiveGasPrice": "0x2464f377200",
      "from": "0xbcf684167c845b5b9184618e08ecd5d56d34fded",
      "to": "0x5d4771af9d5a078000b8e67720da94d7391a5133",
      "contractAddress": null
    },
    {
      "status": "0x1",
      "cumulativeGasUsed": "0x15614",
      "logs": [
        {
          "address": "0xdca98ad5eb1a0975c57f0eff9d1b8f5960af5d41",
          "topics": [
            "0x3cf14181ae25669a913d72411736fc5c01f538fa503e963b0b2e56bcefb3edaf",
            "0x000000000000000000000000bfc0bb04417a0c78d8acd125d896409a53e0fc64"
          ],
          "data": "0x000000000000000000000000000000000000000000000000000000000000000100000000000000000000000000000000000000000000000000b1a2bc2ec50000",
          "blockHash": "0x99e17b2f63c775a89049c90973386a3195ebc50c3220bfc0a6081a96d3896fb1",
          "blockNumber": "0x1cb18c9",
          "transactionHash": "0x861d67af72ee97eee4a149fd3e6e080979a4cba6570b46998a33f5ecb50dfe30",
          "transactionIndex": "0x0",
          "logIndex": "0x0",
          "removed": false
        }
      ],
      "logsBloom": "0x00000000000000000000080000000000000000080000000000000000000000001000000000000000000000000000000000000000000000000000000000000000000000000000000000200000000000000000000000000000000000000000000000000000000000000000000000000000000000000000000000000000000000000000000000000000000000000000000000000000000000000000000000020000020000000000000000000000000000000000200000000000000000000000008000000000800000000000000000000000000000000000000000000000000000000000000000000000000000000000000000000000000000000000000000000000",
      "type": "0x0",
      "transactionHash": "0x861d67af72ee97eee4a149fd3e6e080979a4cba6570b46998a33f5ecb50dfe30",
      "transactionIndex": "0x0",
      "blockHash": "0x99e17b2f63c775a89049c90973386a3195ebc50c3220bfc0a6081a96d3896fb1",
      "blockNumber": "0x1cb18c9",
      "gasUsed": "0x15614",
      "effectiveGasPrice": "0x2464f377200",
      "from": "0xbfc0bb04417a0c78d8acd125d896409a53e0fc64",
      "to": "0xdca98ad5eb1a0975c57f0eff9d1b8f5960af5d41",
      "contractAddress": null
    }
  ],
  "libraries": [],
  "pending": [],
  "returns": {},
  "timestamp": 1763878349500,
  "chain": 88882,
  "commit": "367bb2c"
}